{
  "contractName": "BEP20",
  "abi": [
    {
      "inputs": [
        {
          "internalType": "string",
          "name": "name_",
          "type": "string"
        },
        {
          "internalType": "string",
          "name": "symbol_",
          "type": "string"
        }
      ],
      "stateMutability": "nonpayable",
      "type": "constructor"
    },
    {
      "anonymous": false,
      "inputs": [
        {
          "indexed": true,
          "internalType": "address",
          "name": "owner",
          "type": "address"
        },
        {
          "indexed": true,
          "internalType": "address",
          "name": "spender",
          "type": "address"
        },
        {
          "indexed": false,
          "internalType": "uint256",
          "name": "value",
          "type": "uint256"
        }
      ],
      "name": "Approval",
      "type": "event"
    },
    {
      "anonymous": false,
      "inputs": [
        {
          "indexed": true,
          "internalType": "address",
          "name": "previousOwner",
          "type": "address"
        },
        {
          "indexed": true,
          "internalType": "address",
          "name": "newOwner",
          "type": "address"
        }
      ],
      "name": "OwnershipTransferred",
      "type": "event"
    },
    {
      "anonymous": false,
      "inputs": [
        {
          "indexed": true,
          "internalType": "address",
          "name": "from",
          "type": "address"
        },
        {
          "indexed": true,
          "internalType": "address",
          "name": "to",
          "type": "address"
        },
        {
          "indexed": false,
          "internalType": "uint256",
          "name": "value",
          "type": "uint256"
        }
      ],
      "name": "Transfer",
      "type": "event"
    },
    {
      "inputs": [],
      "name": "owner",
      "outputs": [
        {
          "internalType": "address",
          "name": "",
          "type": "address"
        }
      ],
      "stateMutability": "view",
      "type": "function"
    },
    {
      "inputs": [],
      "name": "renounceOwnership",
      "outputs": [],
      "stateMutability": "nonpayable",
      "type": "function"
    },
    {
      "inputs": [
        {
          "internalType": "address",
          "name": "newOwner",
          "type": "address"
        }
      ],
      "name": "transferOwnership",
      "outputs": [],
      "stateMutability": "nonpayable",
      "type": "function"
    },
    {
      "inputs": [],
      "name": "getOwner",
      "outputs": [
        {
          "internalType": "address",
          "name": "",
          "type": "address"
        }
      ],
      "stateMutability": "view",
      "type": "function"
    },
    {
      "inputs": [],
      "name": "name",
      "outputs": [
        {
          "internalType": "string",
          "name": "",
          "type": "string"
        }
      ],
      "stateMutability": "view",
      "type": "function"
    },
    {
      "inputs": [],
      "name": "decimals",
      "outputs": [
        {
          "internalType": "uint8",
          "name": "",
          "type": "uint8"
        }
      ],
      "stateMutability": "view",
      "type": "function"
    },
    {
      "inputs": [],
      "name": "symbol",
      "outputs": [
        {
          "internalType": "string",
          "name": "",
          "type": "string"
        }
      ],
      "stateMutability": "view",
      "type": "function"
    },
    {
      "inputs": [],
      "name": "totalSupply",
      "outputs": [
        {
          "internalType": "uint256",
          "name": "",
          "type": "uint256"
        }
      ],
      "stateMutability": "view",
      "type": "function"
    },
    {
      "inputs": [
        {
          "internalType": "address",
          "name": "account",
          "type": "address"
        }
      ],
      "name": "balanceOf",
      "outputs": [
        {
          "internalType": "uint256",
          "name": "",
          "type": "uint256"
        }
      ],
      "stateMutability": "view",
      "type": "function"
    },
    {
      "inputs": [
        {
          "internalType": "address",
          "name": "recipient",
          "type": "address"
        },
        {
          "internalType": "uint256",
          "name": "amount",
          "type": "uint256"
        }
      ],
      "name": "transfer",
      "outputs": [
        {
          "internalType": "bool",
          "name": "",
          "type": "bool"
        }
      ],
      "stateMutability": "nonpayable",
      "type": "function"
    },
    {
      "inputs": [
        {
          "internalType": "address",
          "name": "owner",
          "type": "address"
        },
        {
          "internalType": "address",
          "name": "spender",
          "type": "address"
        }
      ],
      "name": "allowance",
      "outputs": [
        {
          "internalType": "uint256",
          "name": "",
          "type": "uint256"
        }
      ],
      "stateMutability": "view",
      "type": "function"
    },
    {
      "inputs": [
        {
          "internalType": "address",
          "name": "spender",
          "type": "address"
        },
        {
          "internalType": "uint256",
          "name": "amount",
          "type": "uint256"
        }
      ],
      "name": "approve",
      "outputs": [
        {
          "internalType": "bool",
          "name": "",
          "type": "bool"
        }
      ],
      "stateMutability": "nonpayable",
      "type": "function"
    },
    {
      "inputs": [
        {
          "internalType": "address",
          "name": "sender",
          "type": "address"
        },
        {
          "internalType": "address",
          "name": "recipient",
          "type": "address"
        },
        {
          "internalType": "uint256",
          "name": "amount",
          "type": "uint256"
        }
      ],
      "name": "transferFrom",
      "outputs": [
        {
          "internalType": "bool",
          "name": "",
          "type": "bool"
        }
      ],
      "stateMutability": "nonpayable",
      "type": "function"
    },
    {
      "inputs": [
        {
          "internalType": "address",
          "name": "spender",
          "type": "address"
        },
        {
          "internalType": "uint256",
          "name": "addedValue",
          "type": "uint256"
        }
      ],
      "name": "increaseAllowance",
      "outputs": [
        {
          "internalType": "bool",
          "name": "",
          "type": "bool"
        }
      ],
      "stateMutability": "nonpayable",
      "type": "function"
    },
    {
      "inputs": [
        {
          "internalType": "address",
          "name": "spender",
          "type": "address"
        },
        {
          "internalType": "uint256",
          "name": "subtractedValue",
          "type": "uint256"
        }
      ],
      "name": "decreaseAllowance",
      "outputs": [
        {
          "internalType": "bool",
          "name": "",
          "type": "bool"
        }
      ],
      "stateMutability": "nonpayable",
      "type": "function"
    },
    {
      "inputs": [
        {
          "internalType": "uint256",
          "name": "amount",
          "type": "uint256"
        }
      ],
      "name": "mint",
      "outputs": [
        {
          "internalType": "bool",
          "name": "",
          "type": "bool"
        }
      ],
      "stateMutability": "nonpayable",
      "type": "function"
    }
  ],
  "bytecode": "0x60806040523480156200001157600080fd5b50604051620010ac380380620010ac833981016040819052620000349162000220565b600062000040620000cb565b600080546001600160a01b0319166001600160a01b0383169081178255604051929350917f8be0079c531659141344cd1fd0a4f28419497f9722a3daafe3b4186f6b6457e0908290a35081516200009f906004906020850190620000cf565b508051620000b5906005906020840190620000cf565b50506006805460ff1916601217905550620002da565b3390565b828054620000dd9062000287565b90600052602060002090601f0160209004810192826200010157600085556200014c565b82601f106200011c57805160ff19168380011785556200014c565b828001600101855582156200014c579182015b828111156200014c5782518255916020019190600101906200012f565b506200015a9291506200015e565b5090565b5b808211156200015a57600081556001016200015f565b600082601f83011262000186578081fd5b81516001600160401b0380821115620001a357620001a3620002c4565b6040516020601f8401601f1916820181018381118382101715620001cb57620001cb620002c4565b6040528382528584018101871015620001e2578485fd5b8492505b83831015620002055785830181015182840182015291820191620001e6565b838311156200021657848185840101525b5095945050505050565b6000806040838503121562000233578182fd5b82516001600160401b03808211156200024a578384fd5b620002588683870162000175565b935060208501519150808211156200026e578283fd5b506200027d8582860162000175565b9150509250929050565b6002810460018216806200029c57607f821691505b60208210811415620002be57634e487b7160e01b600052602260045260246000fd5b50919050565b634e487b7160e01b600052604160045260246000fd5b610dc280620002ea6000396000f3fe608060405234801561001057600080fd5b50600436106101005760003560e01c8063893d20e811610097578063a457c2d711610066578063a457c2d7146101e8578063a9059cbb146101fb578063dd62ed3e1461020e578063f2fde38b1461022157610100565b8063893d20e8146101b05780638da5cb5b146101c557806395d89b41146101cd578063a0712d68146101d557610100565b8063313ce567116100d3578063313ce5671461016b578063395093511461018057806370a0823114610193578063715018a6146101a657610100565b806306fdde0314610105578063095ea7b31461012357806318160ddd1461014357806323b872dd14610158575b600080fd5b61010d610234565b60405161011a9190610a38565b60405180910390f35b6101366101313660046109d8565b6102c6565b60405161011a9190610a2d565b61014b6102e3565b60405161011a9190610c82565b61013661016636600461099d565b6102e9565b610173610370565b60405161011a9190610c8b565b61013661018e3660046109d8565b610379565b61014b6101a1366004610951565b6103c7565b6101ae6103e6565b005b6101b861046e565b60405161011a9190610a19565b6101b861047d565b61010d61048c565b6101366101e3366004610a01565b61049b565b6101366101f63660046109d8565b6104eb565b6101366102093660046109d8565b610553565b61014b61021c36600461096b565b610567565b6101ae61022f366004610951565b610592565b60606004805461024390610cc8565b80601f016020809104026020016040519081016040528092919081815260200182805461026f90610cc8565b80156102bc5780601f10610291576101008083540402835291602001916102bc565b820191906000526020600020905b81548152906001019060200180831161029f57829003601f168201915b5050505050905090565b60006102da6102d36105d3565b84846105d7565b50600192915050565b60035490565b60006102f684848461068b565b610366846103026105d3565b61036185604051806060016040528060288152602001610d1a602891396001600160a01b038a166000908152600260205260408120906103406105d3565b6001600160a01b031681526020810191909152604001600020549190610795565b6105d7565b5060019392505050565b60065460ff1690565b60006102da6103866105d3565b8461036185600260006103976105d3565b6001600160a01b03908116825260208083019390935260409182016000908120918c1681529252902054906107cf565b6001600160a01b0381166000908152600160205260409020545b919050565b6103ee6105d3565b6000546001600160a01b039081169116146104245760405162461bcd60e51b815260040161041b90610bc8565b60405180910390fd5b600080546040516001600160a01b03909116907f8be0079c531659141344cd1fd0a4f28419497f9722a3daafe3b4186f6b6457e0908390a3600080546001600160a01b0319169055565b600061047861047d565b905090565b6000546001600160a01b031690565b60606005805461024390610cc8565b60006104a56105d3565b6000546001600160a01b039081169116146104d25760405162461bcd60e51b815260040161041b90610bc8565b6104e36104dd6105d3565b83610805565b506001919050565b60006102da6104f86105d3565b8461036185604051806060016040528060258152602001610d6860259139600260006105226105d3565b6001600160a01b03908116825260208083019390935260409182016000908120918d16815292529020549190610795565b60006102da6105606105d3565b848461068b565b6001600160a01b03918216600090815260026020908152604080832093909416825291909152205490565b61059a6105d3565b6000546001600160a01b039081169116146105c75760405162461bcd60e51b815260040161041b90610bc8565b6105d0816108b9565b50565b3390565b6001600160a01b0383166105fd5760405162461bcd60e51b815260040161041b90610ad0565b6001600160a01b0382166106235760405162461bcd60e51b815260040161041b90610c40565b6001600160a01b0380841660008181526002602090815260408083209487168084529490915290819020849055517f8c5be1e5ebec7d5bd14f71427d1e84f3dd0314c0f7b2291e5b200ac8c7c3b9259061067e908590610c82565b60405180910390a3505050565b6001600160a01b0383166106b15760405162461bcd60e51b815260040161041b90610a8b565b6001600160a01b0382166106d75760405162461bcd60e51b815260040161041b90610bfd565b61071481604051806060016040528060268152602001610d42602691396001600160a01b0386166000908152600160205260409020549190610795565b6001600160a01b03808516600090815260016020526040808220939093559084168152205461074390826107cf565b6001600160a01b0380841660008181526001602052604090819020939093559151908516907fddf252ad1be2c89b69c2b068fc378daa952ba7f163c4a11628f55a4df523b3ef9061067e908590610c82565b600081848411156107b95760405162461bcd60e51b815260040161041b9190610a38565b5060006107c68486610cb1565b95945050505050565b6000806107dc8385610c99565b9050838110156107fe5760405162461bcd60e51b815260040161041b90610b5a565b9392505050565b6001600160a01b03821661082b5760405162461bcd60e51b815260040161041b90610b91565b60035461083890826107cf565b6003556001600160a01b03821660009081526001602052604090205461085e90826107cf565b6001600160a01b0383166000818152600160205260408082209390935591519091907fddf252ad1be2c89b69c2b068fc378daa952ba7f163c4a11628f55a4df523b3ef906108ad908590610c82565b60405180910390a35050565b6001600160a01b0381166108df5760405162461bcd60e51b815260040161041b90610b14565b600080546040516001600160a01b03808516939216917f8be0079c531659141344cd1fd0a4f28419497f9722a3daafe3b4186f6b6457e091a3600080546001600160a01b0319166001600160a01b0392909216919091179055565b80356001600160a01b03811681146103e157600080fd5b600060208284031215610962578081fd5b6107fe8261093a565b6000806040838503121561097d578081fd5b6109868361093a565b91506109946020840161093a565b90509250929050565b6000806000606084860312156109b1578081fd5b6109ba8461093a565b92506109c86020850161093a565b9150604084013590509250925092565b600080604083850312156109ea578182fd5b6109f38361093a565b946020939093013593505050565b600060208284031215610a12578081fd5b5035919050565b6001600160a01b0391909116815260200190565b901515815260200190565b6000602080835283518082850152825b81811015610a6457858101830151858201604001528201610a48565b81811115610a755783604083870101525b50601f01601f1916929092016040019392505050565b60208082526025908201527f42455032303a207472616e736665722066726f6d20746865207a65726f206164604082015264647265737360d81b606082015260800190565b60208082526024908201527f42455032303a20617070726f76652066726f6d20746865207a65726f206164646040820152637265737360e01b606082015260800190565b60208082526026908201527f4f776e61626c653a206e6577206f776e657220697320746865207a65726f206160408201526564647265737360d01b606082015260800190565b6020808252601b908201527f536166654d6174683a206164646974696f6e206f766572666c6f770000000000604082015260600190565b6020808252601f908201527f42455032303a206d696e7420746f20746865207a65726f206164647265737300604082015260600190565b6020808252818101527f4f776e61626c653a2063616c6c6572206973206e6f7420746865206f776e6572604082015260600190565b60208082526023908201527f42455032303a207472616e7366657220746f20746865207a65726f206164647260408201526265737360e81b606082015260800190565b60208082526022908201527f42455032303a20617070726f766520746f20746865207a65726f206164647265604082015261737360f01b606082015260800190565b90815260200190565b60ff91909116815260200190565b60008219821115610cac57610cac610d03565b500190565b600082821015610cc357610cc3610d03565b500390565b600281046001821680610cdc57607f821691505b60208210811415610cfd57634e487b7160e01b600052602260045260246000fd5b50919050565b634e487b7160e01b600052601160045260246000fdfe42455032303a207472616e7366657220616d6f756e74206578636565647320616c6c6f77616e636542455032303a207472616e7366657220616d6f756e7420657863656564732062616c616e636542455032303a2064656372656173656420616c6c6f77616e63652062656c6f77207a65726fa2646970667358221220c39853896934e091b8c4b260a07e4e48189b846a7d23e72abe60fbb69487a15b64736f6c63430008000033",
  "immutableReferences": {},
  "source": "// SPDX-License-Identifier: MIT\r\npragma solidity ^0.8.0;\r\n\r\n\r\n// \r\n/**\r\n * @dev Wrappers over Solidity's arithmetic operations with added overflow\r\n * checks.\r\n *\r\n * Arithmetic operations in Solidity wrap on overflow. This can easily result\r\n * in bugs, because programmers usually assume that an overflow raises an\r\n * error, which is the standard behavior in high level programming languages.\r\n * `SafeMath` restores this intuition by reverting the transaction when an\r\n * operation overflows.\r\n *\r\n * Using this library instead of the unchecked operations eliminates an entire\r\n * class of bugs, so it's recommended to use it always.\r\n */\r\nlibrary SafeMath {\r\n    /**\r\n     * @dev Returns the addition of two unsigned integers, reverting on\r\n     * overflow.\r\n     *\r\n     * Counterpart to Solidity's `+` operator.\r\n     *\r\n     * Requirements:\r\n     *\r\n     * - Addition cannot overflow.\r\n     */\r\n    function add(uint256 a, uint256 b) internal pure returns (uint256) {\r\n        uint256 c = a + b;\r\n        require(c >= a, 'SafeMath: addition overflow');\r\n\r\n        return c;\r\n    }\r\n\r\n    /**\r\n     * @dev Returns the subtraction of two unsigned integers, reverting on\r\n     * overflow (when the result is negative).\r\n     *\r\n     * Counterpart to Solidity's `-` operator.\r\n     *\r\n     * Requirements:\r\n     *\r\n     * - Subtraction cannot overflow.\r\n     */\r\n    function sub(uint256 a, uint256 b) internal pure returns (uint256) {\r\n        return sub(a, b, 'SafeMath: subtraction overflow');\r\n    }\r\n\r\n    /**\r\n     * @dev Returns the subtraction of two unsigned integers, reverting with custom message on\r\n     * overflow (when the result is negative).\r\n     *\r\n     * Counterpart to Solidity's `-` operator.\r\n     *\r\n     * Requirements:\r\n     *\r\n     * - Subtraction cannot overflow.\r\n     */\r\n    function sub(\r\n        uint256 a,\r\n        uint256 b,\r\n        string memory errorMessage\r\n    ) internal pure returns (uint256) {\r\n        require(b <= a, errorMessage);\r\n        uint256 c = a - b;\r\n\r\n        return c;\r\n    }\r\n\r\n    /**\r\n     * @dev Returns the multiplication of two unsigned integers, reverting on\r\n     * overflow.\r\n     *\r\n     * Counterpart to Solidity's `*` operator.\r\n     *\r\n     * Requirements:\r\n     *\r\n     * - Multiplication cannot overflow.\r\n     */\r\n    function mul(uint256 a, uint256 b) internal pure returns (uint256) {\r\n        // Gas optimization: this is cheaper than requiring 'a' not being zero, but the\r\n        // benefit is lost if 'b' is also tested.\r\n        // See: https://github.com/OpenZeppelin/openzeppelin-contracts/pull/522\r\n        if (a == 0) {\r\n            return 0;\r\n        }\r\n\r\n        uint256 c = a * b;\r\n        require(c / a == b, 'SafeMath: multiplication overflow');\r\n\r\n        return c;\r\n    }\r\n\r\n    /**\r\n     * @dev Returns the integer division of two unsigned integers. Reverts on\r\n     * division by zero. The result is rounded towards zero.\r\n     *\r\n     * Counterpart to Solidity's `/` operator. Note: this function uses a\r\n     * `revert` opcode (which leaves remaining gas untouched) while Solidity\r\n     * uses an invalid opcode to revert (consuming all remaining gas).\r\n     *\r\n     * Requirements:\r\n     *\r\n     * - The divisor cannot be zero.\r\n     */\r\n    function div(uint256 a, uint256 b) internal pure returns (uint256) {\r\n        return div(a, b, 'SafeMath: division by zero');\r\n    }\r\n\r\n    /**\r\n     * @dev Returns the integer division of two unsigned integers. Reverts with custom message on\r\n     * division by zero. The result is rounded towards zero.\r\n     *\r\n     * Counterpart to Solidity's `/` operator. Note: this function uses a\r\n     * `revert` opcode (which leaves remaining gas untouched) while Solidity\r\n     * uses an invalid opcode to revert (consuming all remaining gas).\r\n     *\r\n     * Requirements:\r\n     *\r\n     * - The divisor cannot be zero.\r\n     */\r\n    function div(\r\n        uint256 a,\r\n        uint256 b,\r\n        string memory errorMessage\r\n    ) internal pure returns (uint256) {\r\n        require(b > 0, errorMessage);\r\n        uint256 c = a / b;\r\n        // assert(a == b * c + a % b); // There is no case in which this doesn't hold\r\n\r\n        return c;\r\n    }\r\n\r\n    /**\r\n     * @dev Returns the remainder of dividing two unsigned integers. (unsigned integer modulo),\r\n     * Reverts when dividing by zero.\r\n     *\r\n     * Counterpart to Solidity's `%` operator. This function uses a `revert`\r\n     * opcode (which leaves remaining gas untouched) while Solidity uses an\r\n     * invalid opcode to revert (consuming all remaining gas).\r\n     *\r\n     * Requirements:\r\n     *\r\n     * - The divisor cannot be zero.\r\n     */\r\n    function mod(uint256 a, uint256 b) internal pure returns (uint256) {\r\n        return mod(a, b, 'SafeMath: modulo by zero');\r\n    }\r\n\r\n    /**\r\n     * @dev Returns the remainder of dividing two unsigned integers. (unsigned integer modulo),\r\n     * Reverts with custom message when dividing by zero.\r\n     *\r\n     * Counterpart to Solidity's `%` operator. This function uses a `revert`\r\n     * opcode (which leaves remaining gas untouched) while Solidity uses an\r\n     * invalid opcode to revert (consuming all remaining gas).\r\n     *\r\n     * Requirements:\r\n     *\r\n     * - The divisor cannot be zero.\r\n     */\r\n    function mod(\r\n        uint256 a,\r\n        uint256 b,\r\n        string memory errorMessage\r\n    ) internal pure returns (uint256) {\r\n        require(b != 0, errorMessage);\r\n        return a % b;\r\n    }\r\n\r\n    function min(uint256 x, uint256 y) internal pure returns (uint256 z) {\r\n        z = x < y ? x : y;\r\n    }\r\n\r\n    // babylonian method (https://en.wikipedia.org/wiki/Methods_of_computing_square_roots#Babylonian_method)\r\n    function sqrt(uint256 y) internal pure returns (uint256 z) {\r\n        if (y > 3) {\r\n            z = y;\r\n            uint256 x = y / 2 + 1;\r\n            while (x < z) {\r\n                z = x;\r\n                x = (y / x + x) / 2;\r\n            }\r\n        } else if (y != 0) {\r\n            z = 1;\r\n        }\r\n    }\r\n}\r\n\r\n// \r\ninterface IBEP20 {\r\n    /**\r\n     * @dev Returns the amount of tokens in existence.\r\n     */\r\n    function totalSupply() external view returns (uint256);\r\n\r\n    /**\r\n     * @dev Returns the token decimals.\r\n     */\r\n    function decimals() external view returns (uint8);\r\n\r\n    /**\r\n     * @dev Returns the token symbol.\r\n     */\r\n    function symbol() external view returns (string memory);\r\n\r\n    /**\r\n     * @dev Returns the token name.\r\n     */\r\n    function name() external view returns (string memory);\r\n\r\n    /**\r\n     * @dev Returns the bep token owner.\r\n     */\r\n    function getOwner() external view returns (address);\r\n\r\n    /**\r\n     * @dev Returns the amount of tokens owned by `account`.\r\n     */\r\n    function balanceOf(address account) external view returns (uint256);\r\n\r\n    /**\r\n     * @dev Moves `amount` tokens from the caller's account to `recipient`.\r\n     *\r\n     * Returns a boolean value indicating whether the operation succeeded.\r\n     *\r\n     * Emits a {Transfer} event.\r\n     */\r\n    function transfer(address recipient, uint256 amount) external returns (bool);\r\n\r\n    /**\r\n     * @dev Returns the remaining number of tokens that `spender` will be\r\n     * allowed to spend on behalf of `owner` through {transferFrom}. This is\r\n     * zero by default.\r\n     *\r\n     * This value changes when {approve} or {transferFrom} are called.\r\n     */\r\n    function allowance(address _owner, address spender) external view returns (uint256);\r\n\r\n    /**\r\n     * @dev Sets `amount` as the allowance of `spender` over the caller's tokens.\r\n     *\r\n     * Returns a boolean value indicating whether the operation succeeded.\r\n     *\r\n     * IMPORTANT: Beware that changing an allowance with this method brings the risk\r\n     * that someone may use both the old and the new allowance by unfortunate\r\n     * transaction ordering. One possible solution to mitigate this race\r\n     * condition is to first reduce the spender's allowance to 0 and set the\r\n     * desired value afterwards:\r\n     * https://github.com/ethereum/EIPs/issues/20#issuecomment-263524729\r\n     *\r\n     * Emits an {Approval} event.\r\n     */\r\n    function approve(address spender, uint256 amount) external returns (bool);\r\n\r\n    /**\r\n     * @dev Moves `amount` tokens from `sender` to `recipient` using the\r\n     * allowance mechanism. `amount` is then deducted from the caller's\r\n     * allowance.\r\n     *\r\n     * Returns a boolean value indicating whether the operation succeeded.\r\n     *\r\n     * Emits a {Transfer} event.\r\n     */\r\n    function transferFrom(\r\n        address sender,\r\n        address recipient,\r\n        uint256 amount\r\n    ) external returns (bool);\r\n\r\n    /**\r\n     * @dev Emitted when `value` tokens are moved from one account (`from`) to\r\n     * another (`to`).\r\n     *\r\n     * Note that `value` may be zero.\r\n     */\r\n    event Transfer(address indexed from, address indexed to, uint256 value);\r\n\r\n    /**\r\n     * @dev Emitted when the allowance of a `spender` for an `owner` is set by\r\n     * a call to {approve}. `value` is the new allowance.\r\n     */\r\n    event Approval(address indexed owner, address indexed spender, uint256 value);\r\n}\r\n\r\n// \r\n/**\r\n * @dev Collection of functions related to the address type\r\n */\r\nlibrary Address {\r\n    /**\r\n     * @dev Returns true if `account` is a contract.\r\n     *\r\n     * [IMPORTANT]\r\n     * ====\r\n     * It is unsafe to assume that an address for which this function returns\r\n     * false is an externally-owned account (EOA) and not a contract.\r\n     *\r\n     * Among others, `isContract` will return false for the following\r\n     * types of addresses:\r\n     *\r\n     *  - an externally-owned account\r\n     *  - a contract in construction\r\n     *  - an address where a contract will be created\r\n     *  - an address where a contract lived, but was destroyed\r\n     * ====\r\n     */\r\n    function isContract(address account) internal view returns (bool) {\r\n        // According to EIP-1052, 0x0 is the value returned for not-yet created accounts\r\n        // and 0xc5d2460186f7233c927e7db2dcc703c0e500b653ca82273b7bfad8045d85a470 is returned\r\n        // for accounts without code, i.e. `keccak256('')`\r\n        bytes32 codehash;\r\n        bytes32 accountHash = 0xc5d2460186f7233c927e7db2dcc703c0e500b653ca82273b7bfad8045d85a470;\r\n        // solhint-disable-next-line no-inline-assembly\r\n        assembly {\r\n            codehash := extcodehash(account)\r\n        }\r\n        return (codehash != accountHash && codehash != 0x0);\r\n    }\r\n\r\n    /**\r\n     * @dev Replacement for Solidity's `transfer`: sends `amount` wei to\r\n     * `recipient`, forwarding all available gas and reverting on errors.\r\n     *\r\n     * https://eips.ethereum.org/EIPS/eip-1884[EIP1884] increases the gas cost\r\n     * of certain opcodes, possibly making contracts go over the 2300 gas limit\r\n     * imposed by `transfer`, making them unable to receive funds via\r\n     * `transfer`. {sendValue} removes this limitation.\r\n     *\r\n     * https://diligence.consensys.net/posts/2019/09/stop-using-soliditys-transfer-now/[Learn more].\r\n     *\r\n     * IMPORTANT: because control is transferred to `recipient`, care must be\r\n     * taken to not create reentrancy vulnerabilities. Consider using\r\n     * {ReentrancyGuard} or the\r\n     * https://solidity.readthedocs.io/en/v0.5.11/security-considerations.html#use-the-checks-effects-interactions-pattern[checks-effects-interactions pattern].\r\n     */\r\n    function sendValue(address payable recipient, uint256 amount) internal {\r\n        require(address(this).balance >= amount, 'Address: insufficient balance');\r\n\r\n        // solhint-disable-next-line avoid-low-level-calls, avoid-call-value\r\n        (bool success, ) = recipient.call{value: amount}('');\r\n        require(success, 'Address: unable to send value, recipient may have reverted');\r\n    }\r\n\r\n    /**\r\n     * @dev Performs a Solidity function call using a low level `call`. A\r\n     * plain`call` is an unsafe replacement for a function call: use this\r\n     * function instead.\r\n     *\r\n     * If `target` reverts with a revert reason, it is bubbled up by this\r\n     * function (like regular Solidity function calls).\r\n     *\r\n     * Returns the raw returned data. To convert to the expected return value,\r\n     * use https://solidity.readthedocs.io/en/latest/units-and-global-variables.html?highlight=abi.decode#abi-encoding-and-decoding-functions[`abi.decode`].\r\n     *\r\n     * Requirements:\r\n     *\r\n     * - `target` must be a contract.\r\n     * - calling `target` with `data` must not revert.\r\n     *\r\n     * _Available since v3.1._\r\n     */\r\n    function functionCall(address target, bytes memory data) internal returns (bytes memory) {\r\n        return functionCall(target, data, 'Address: low-level call failed');\r\n    }\r\n\r\n    /**\r\n     * @dev Same as {xref-Address-functionCall-address-bytes-}[`functionCall`], but with\r\n     * `errorMessage` as a fallback revert reason when `target` reverts.\r\n     *\r\n     * _Available since v3.1._\r\n     */\r\n    function functionCall(\r\n        address target,\r\n        bytes memory data,\r\n        string memory errorMessage\r\n    ) internal returns (bytes memory) {\r\n        return _functionCallWithValue(target, data, 0, errorMessage);\r\n    }\r\n\r\n    /**\r\n     * @dev Same as {xref-Address-functionCall-address-bytes-}[`functionCall`],\r\n     * but also transferring `value` wei to `target`.\r\n     *\r\n     * Requirements:\r\n     *\r\n     * - the calling contract must have an ETH balance of at least `value`.\r\n     * - the called Solidity function must be `payable`.\r\n     *\r\n     * _Available since v3.1._\r\n     */\r\n    function functionCallWithValue(\r\n        address target,\r\n        bytes memory data,\r\n        uint256 value\r\n    ) internal returns (bytes memory) {\r\n        return functionCallWithValue(target, data, value, 'Address: low-level call with value failed');\r\n    }\r\n\r\n    /**\r\n     * @dev Same as {xref-Address-functionCallWithValue-address-bytes-uint256-}[`functionCallWithValue`], but\r\n     * with `errorMessage` as a fallback revert reason when `target` reverts.\r\n     *\r\n     * _Available since v3.1._\r\n     */\r\n    function functionCallWithValue(\r\n        address target,\r\n        bytes memory data,\r\n        uint256 value,\r\n        string memory errorMessage\r\n    ) internal returns (bytes memory) {\r\n        require(address(this).balance >= value, 'Address: insufficient balance for call');\r\n        return _functionCallWithValue(target, data, value, errorMessage);\r\n    }\r\n\r\n    function _functionCallWithValue(\r\n        address target,\r\n        bytes memory data,\r\n        uint256 weiValue,\r\n        string memory errorMessage\r\n    ) private returns (bytes memory) {\r\n        require(isContract(target), 'Address: call to non-contract');\r\n\r\n        // solhint-disable-next-line avoid-low-level-calls\r\n        (bool success, bytes memory returndata) = target.call{value: weiValue}(data);\r\n        if (success) {\r\n            return returndata;\r\n        } else {\r\n            // Look for revert reason and bubble it up if present\r\n            if (returndata.length > 0) {\r\n                // The easiest way to bubble the revert reason is using memory via assembly\r\n\r\n                // solhint-disable-next-line no-inline-assembly\r\n                assembly {\r\n                    let returndata_size := mload(returndata)\r\n                    revert(add(32, returndata), returndata_size)\r\n                }\r\n            } else {\r\n                revert(errorMessage);\r\n            }\r\n        }\r\n    }\r\n}\r\n\r\n// \r\n/**\r\n * @title SafeBEP20\r\n * @dev Wrappers around BEP20 operations that throw on failure (when the token\r\n * contract returns false). Tokens that return no value (and instead revert or\r\n * throw on failure) are also supported, non-reverting calls are assumed to be\r\n * successful.\r\n * To use this library you can add a `using SafeBEP20 for IBEP20;` statement to your contract,\r\n * which allows you to call the safe operations as `token.safeTransfer(...)`, etc.\r\n */\r\nlibrary SafeBEP20 {\r\n    using SafeMath for uint256;\r\n    using Address for address;\r\n\r\n    function safeTransfer(\r\n        IBEP20 token,\r\n        address to,\r\n        uint256 value\r\n    ) internal {\r\n        _callOptionalReturn(token, abi.encodeWithSelector(token.transfer.selector, to, value));\r\n    }\r\n\r\n    function safeTransferFrom(\r\n        IBEP20 token,\r\n        address from,\r\n        address to,\r\n        uint256 value\r\n    ) internal {\r\n        _callOptionalReturn(token, abi.encodeWithSelector(token.transferFrom.selector, from, to, value));\r\n    }\r\n\r\n    /**\r\n     * @dev Deprecated. This function has issues similar to the ones found in\r\n     * {IBEP20-approve}, and its usage is discouraged.\r\n     *\r\n     * Whenever possible, use {safeIncreaseAllowance} and\r\n     * {safeDecreaseAllowance} instead.\r\n     */\r\n    function safeApprove(\r\n        IBEP20 token,\r\n        address spender,\r\n        uint256 value\r\n    ) internal {\r\n        // safeApprove should only be called when setting an initial allowance,\r\n        // or when resetting it to zero. To increase and decrease it, use\r\n        // 'safeIncreaseAllowance' and 'safeDecreaseAllowance'\r\n        // solhint-disable-next-line max-line-length\r\n        require(\r\n            (value == 0) || (token.allowance(address(this), spender) == 0),\r\n            'SafeBEP20: approve from non-zero to non-zero allowance'\r\n        );\r\n        _callOptionalReturn(token, abi.encodeWithSelector(token.approve.selector, spender, value));\r\n    }\r\n\r\n    function safeIncreaseAllowance(\r\n        IBEP20 token,\r\n        address spender,\r\n        uint256 value\r\n    ) internal {\r\n        uint256 newAllowance = token.allowance(address(this), spender).add(value);\r\n        _callOptionalReturn(token, abi.encodeWithSelector(token.approve.selector, spender, newAllowance));\r\n    }\r\n\r\n    function safeDecreaseAllowance(\r\n        IBEP20 token,\r\n        address spender,\r\n        uint256 value\r\n    ) internal {\r\n        uint256 newAllowance = token.allowance(address(this), spender).sub(\r\n            value,\r\n            'SafeBEP20: decreased allowance below zero'\r\n        );\r\n        _callOptionalReturn(token, abi.encodeWithSelector(token.approve.selector, spender, newAllowance));\r\n    }\r\n\r\n    /**\r\n     * @dev Imitates a Solidity high-level call (i.e. a regular function call to a contract), relaxing the requirement\r\n     * on the return value: the return value is optional (but if data is returned, it must not be false).\r\n     * @param token The token targeted by the call.\r\n     * @param data The call data (encoded using abi.encode or one of its variants).\r\n     */\r\n    function _callOptionalReturn(IBEP20 token, bytes memory data) private {\r\n        // We need to perform a low level call here, to bypass Solidity's return data size checking mechanism, since\r\n        // we're implementing it ourselves. We use {Address.functionCall} to perform this call, which verifies that\r\n        // the target address contains contract code and also asserts for success in the low-level call.\r\n\r\n        bytes memory returndata = address(token).functionCall(data, 'SafeBEP20: low-level call failed');\r\n        if (returndata.length > 0) {\r\n            // Return data is optional\r\n            // solhint-disable-next-line max-line-length\r\n            require(abi.decode(returndata, (bool)), 'SafeBEP20: BEP20 operation did not succeed');\r\n        }\r\n    }\r\n}\r\n\r\n// \r\n/*\r\n * @dev Provides information about the current execution context, including the\r\n * sender of the transaction and its data. While these are generally available\r\n * via msg.sender and msg.data, they should not be accessed in such a direct\r\n * manner, since when dealing with GSN meta-transactions the account sending and\r\n * paying for execution may not be the actual sender (as far as an application\r\n * is concerned).\r\n *\r\n * This contract is only required for intermediate, library-like contracts.\r\n */\r\ncontract Context {\r\n    // Empty internal constructor, to prevent people from mistakenly deploying\r\n    // an instance of this contract, which should be used via inheritance.\r\n    constructor() {}\r\n\r\n    function _msgSender() internal view returns (address) {\r\n        return msg.sender;\r\n    }\r\n\r\n    function _msgData() internal view returns (bytes memory) {\r\n        this; // silence state mutability warning without generating bytecode - see https://github.com/ethereum/solidity/issues/2691\r\n        return msg.data;\r\n    }\r\n}\r\n\r\n// \r\n/**\r\n * @dev Contract module which provides a basic access control mechanism, where\r\n * there is an account (an owner) that can be granted exclusive access to\r\n * specific functions.\r\n *\r\n * By default, the owner account will be the one that deploys the contract. This\r\n * can later be changed with {transferOwnership}.\r\n *\r\n * This module is used through inheritance. It will make available the modifier\r\n * `onlyOwner`, which can be applied to your functions to restrict their use to\r\n * the owner.\r\n */\r\ncontract Ownable is Context {\r\n    address private _owner;\r\n\r\n    event OwnershipTransferred(address indexed previousOwner, address indexed newOwner);\r\n\r\n    /**\r\n     * @dev Initializes the contract setting the deployer as the initial owner.\r\n     */\r\n    constructor()  {\r\n        address msgSender = _msgSender();\r\n        _owner = msgSender;\r\n        emit OwnershipTransferred(address(0), msgSender);\r\n    }\r\n\r\n    /**\r\n     * @dev Returns the address of the current owner.\r\n     */\r\n    function owner() public view returns (address) {\r\n        return _owner;\r\n    }\r\n\r\n    /**\r\n     * @dev Throws if called by any account other than the owner.\r\n     */\r\n    modifier onlyOwner() {\r\n        require(_owner == _msgSender(), 'Ownable: caller is not the owner');\r\n        _;\r\n    }\r\n\r\n    /**\r\n     * @dev Leaves the contract without owner. It will not be possible to call\r\n     * `onlyOwner` functions anymore. Can only be called by the current owner.\r\n     *\r\n     * NOTE: Renouncing ownership will leave the contract without an owner,\r\n     * thereby removing any functionality that is only available to the owner.\r\n     */\r\n    function renounceOwnership() public onlyOwner {\r\n        emit OwnershipTransferred(_owner, address(0));\r\n        _owner = address(0);\r\n    }\r\n\r\n    /**\r\n     * @dev Transfers ownership of the contract to a new account (`newOwner`).\r\n     * Can only be called by the current owner.\r\n     */\r\n    function transferOwnership(address newOwner) public onlyOwner {\r\n        _transferOwnership(newOwner);\r\n    }\r\n\r\n    /**\r\n     * @dev Transfers ownership of the contract to a new account (`newOwner`).\r\n     */\r\n    function _transferOwnership(address newOwner) internal {\r\n        require(newOwner != address(0), 'Ownable: new owner is the zero address');\r\n        emit OwnershipTransferred(_owner, newOwner);\r\n        _owner = newOwner;\r\n    }\r\n}\r\n\r\n// \r\n/**\r\n * @dev Implementation of the {IBEP20} interface.\r\n *\r\n * This implementation is agnostic to the way tokens are created. This means\r\n * that a supply mechanism has to be added in a derived contract using {_mint}.\r\n * For a generic mechanism see {BEP20PresetMinterPauser}.\r\n *\r\n * TIP: For a detailed writeup see our guide\r\n * https://forum.zeppelin.solutions/t/how-to-implement-BEP20-supply-mechanisms/226[How\r\n * to implement supply mechanisms].\r\n *\r\n * We have followed general OpenZeppelin guidelines: functions revert instead\r\n * of returning `false` on failure. This behavior is nonetheless conventional\r\n * and does not conflict with the expectations of BEP20 applications.\r\n *\r\n * Additionally, an {Approval} event is emitted on calls to {transferFrom}.\r\n * This allows applications to reconstruct the allowance for all accounts just\r\n * by listening to said events. Other implementations of the EIP may not emit\r\n * these events, as it isn't required by the specification.\r\n *\r\n * Finally, the non-standard {decreaseAllowance} and {increaseAllowance}\r\n * functions have been added to mitigate the well-known issues around setting\r\n * allowances. See {IBEP20-approve}.\r\n */\r\ncontract BEP20 is Context, IBEP20, Ownable {\r\n    using SafeMath for uint256;\r\n    using Address for address;\r\n\r\n    mapping(address => uint256) private _balances;\r\n\r\n    mapping(address => mapping(address => uint256)) private _allowances;\r\n\r\n    uint256 private _totalSupply;\r\n\r\n    string private _name;\r\n    string private _symbol;\r\n    uint8 private _decimals;\r\n\r\n    /**\r\n     * @dev Sets the values for {name} and {symbol}, initializes {decimals} with\r\n     * a default value of 18.\r\n     *\r\n     * To select a different value for {decimals}, use {_setupDecimals}.\r\n     *\r\n     * All three of these values are immutable: they can only be set once during\r\n     * construction.\r\n     */\r\n    constructor(string memory name_, string memory symbol_) {\r\n        _name = name_;\r\n        _symbol = symbol_;\r\n        _decimals = 18;\r\n    }\r\n\r\n    /**\r\n     * @dev Returns the bep token owner.\r\n     */\r\n    function getOwner() external override view returns (address) {\r\n        return owner();\r\n    }\r\n\r\n    /**\r\n     * @dev Returns the token name.\r\n     */\r\n    function name() public override view returns (string memory) {\r\n        return _name;\r\n    }\r\n\r\n    /**\r\n     * @dev Returns the token decimals.\r\n     */\r\n    function decimals() public override view returns (uint8) {\r\n        return _decimals;\r\n    }\r\n\r\n    /**\r\n     * @dev Returns the token symbol.\r\n     */\r\n    function symbol() public override view returns (string memory) {\r\n        return _symbol;\r\n    }\r\n\r\n    /**\r\n     * @dev See {BEP20-totalSupply}.\r\n     */\r\n    function totalSupply() public override view returns (uint256) {\r\n        return _totalSupply;\r\n    }\r\n\r\n    /**\r\n     * @dev See {BEP20-balanceOf}.\r\n     */\r\n    function balanceOf(address account) public override view returns (uint256) {\r\n        return _balances[account];\r\n    }\r\n\r\n    /**\r\n     * @dev See {BEP20-transfer}.\r\n     *\r\n     * Requirements:\r\n     *\r\n     * - `recipient` cannot be the zero address.\r\n     * - the caller must have a balance of at least `amount`.\r\n     */\r\n    function transfer(address recipient, uint256 amount) public override returns (bool) {\r\n        _transfer(_msgSender(), recipient, amount);\r\n        return true;\r\n    }\r\n\r\n    /**\r\n     * @dev See {BEP20-allowance}.\r\n     */\r\n    function allowance(address owner, address spender) public override view returns (uint256) {\r\n        return _allowances[owner][spender];\r\n    }\r\n\r\n    /**\r\n     * @dev See {BEP20-approve}.\r\n     *\r\n     * Requirements:\r\n     *\r\n     * - `spender` cannot be the zero address.\r\n     */\r\n    function approve(address spender, uint256 amount) public override returns (bool) {\r\n        _approve(_msgSender(), spender, amount);\r\n        return true;\r\n    }\r\n\r\n    /**\r\n     * @dev See {BEP20-transferFrom}.\r\n     *\r\n     * Emits an {Approval} event indicating the updated allowance. This is not\r\n     * required by the EIP. See the note at the beginning of {BEP20};\r\n     *\r\n     * Requirements:\r\n     * - `sender` and `recipient` cannot be the zero address.\r\n     * - `sender` must have a balance of at least `amount`.\r\n     * - the caller must have allowance for `sender`'s tokens of at least\r\n     * `amount`.\r\n     */\r\n    function transferFrom(\r\n        address sender,\r\n        address recipient,\r\n        uint256 amount\r\n    ) public override returns (bool) {\r\n        _transfer(sender, recipient, amount);\r\n        _approve(\r\n            sender,\r\n            _msgSender(),\r\n            _allowances[sender][_msgSender()].sub(amount, 'BEP20: transfer amount exceeds allowance')\r\n        );\r\n        return true;\r\n    }\r\n\r\n    /**\r\n     * @dev Atomically increases the allowance granted to `spender` by the caller.\r\n     *\r\n     * This is an alternative to {approve} that can be used as a mitigation for\r\n     * problems described in {BEP20-approve}.\r\n     *\r\n     * Emits an {Approval} event indicating the updated allowance.\r\n     *\r\n     * Requirements:\r\n     *\r\n     * - `spender` cannot be the zero address.\r\n     */\r\n    function increaseAllowance(address spender, uint256 addedValue) public returns (bool) {\r\n        _approve(_msgSender(), spender, _allowances[_msgSender()][spender].add(addedValue));\r\n        return true;\r\n    }\r\n\r\n    /**\r\n     * @dev Atomically decreases the allowance granted to `spender` by the caller.\r\n     *\r\n     * This is an alternative to {approve} that can be used as a mitigation for\r\n     * problems described in {BEP20-approve}.\r\n     *\r\n     * Emits an {Approval} event indicating the updated allowance.\r\n     *\r\n     * Requirements:\r\n     *\r\n     * - `spender` cannot be the zero address.\r\n     * - `spender` must have allowance for the caller of at least\r\n     * `subtractedValue`.\r\n     */\r\n    function decreaseAllowance(address spender, uint256 subtractedValue) public returns (bool) {\r\n        _approve(\r\n            _msgSender(),\r\n            spender,\r\n            _allowances[_msgSender()][spender].sub(subtractedValue, 'BEP20: decreased allowance below zero')\r\n        );\r\n        return true;\r\n    }\r\n\r\n    /**\r\n     * @dev Creates `amount` tokens and assigns them to `msg.sender`, increasing\r\n     * the total supply.\r\n     *\r\n     * Requirements\r\n     *\r\n     * - `msg.sender` must be the token owner\r\n     */\r\n    function mint(uint256 amount) public onlyOwner returns (bool) {\r\n        _mint(_msgSender(), amount);\r\n        return true;\r\n    }\r\n\r\n    /**\r\n     * @dev Moves tokens `amount` from `sender` to `recipient`.\r\n     *\r\n     * This is internal function is equivalent to {transfer}, and can be used to\r\n     * e.g. implement automatic token fees, slashing mechanisms, etc.\r\n     *\r\n     * Emits a {Transfer} event.\r\n     *\r\n     * Requirements:\r\n     *\r\n     * - `sender` cannot be the zero address.\r\n     * - `recipient` cannot be the zero address.\r\n     * - `sender` must have a balance of at least `amount`.\r\n     */\r\n    function _transfer(\r\n        address sender,\r\n        address recipient,\r\n        uint256 amount\r\n    ) internal {\r\n        require(sender != address(0), 'BEP20: transfer from the zero address');\r\n        require(recipient != address(0), 'BEP20: transfer to the zero address');\r\n\r\n        _balances[sender] = _balances[sender].sub(amount, 'BEP20: transfer amount exceeds balance');\r\n        _balances[recipient] = _balances[recipient].add(amount);\r\n        emit Transfer(sender, recipient, amount);\r\n    }\r\n\r\n    /** @dev Creates `amount` tokens and assigns them to `account`, increasing\r\n     * the total supply.\r\n     *\r\n     * Emits a {Transfer} event with `from` set to the zero address.\r\n     *\r\n     * Requirements\r\n     *\r\n     * - `to` cannot be the zero address.\r\n     */\r\n    function _mint(address account, uint256 amount) internal {\r\n        require(account != address(0), 'BEP20: mint to the zero address');\r\n\r\n        _totalSupply = _totalSupply.add(amount);\r\n        _balances[account] = _balances[account].add(amount);\r\n        emit Transfer(address(0), account, amount);\r\n    }\r\n\r\n    /**\r\n     * @dev Destroys `amount` tokens from `account`, reducing the\r\n     * total supply.\r\n     *\r\n     * Emits a {Transfer} event with `to` set to the zero address.\r\n     *\r\n     * Requirements\r\n     *\r\n     * - `account` cannot be the zero address.\r\n     * - `account` must have at least `amount` tokens.\r\n     */\r\n    function _burn(address account, uint256 amount) internal {\r\n        require(account != address(0), 'BEP20: burn from the zero address');\r\n\r\n        _balances[account] = _balances[account].sub(amount, 'BEP20: burn amount exceeds balance');\r\n        _totalSupply = _totalSupply.sub(amount);\r\n        emit Transfer(account, address(0), amount);\r\n    }\r\n\r\n    /**\r\n     * @dev Sets `amount` as the allowance of `spender` over the `owner`s tokens.\r\n     *\r\n     * This is internal function is equivalent to `approve`, and can be used to\r\n     * e.g. set automatic allowances for certain subsystems, etc.\r\n     *\r\n     * Emits an {Approval} event.\r\n     *\r\n     * Requirements:\r\n     *\r\n     * - `owner` cannot be the zero address.\r\n     * - `spender` cannot be the zero address.\r\n     */\r\n    function _approve(\r\n        address owner,\r\n        address spender,\r\n        uint256 amount\r\n    ) internal {\r\n        require(owner != address(0), 'BEP20: approve from the zero address');\r\n        require(spender != address(0), 'BEP20: approve to the zero address');\r\n\r\n        _allowances[owner][spender] = amount;\r\n        emit Approval(owner, spender, amount);\r\n    }\r\n\r\n    /**\r\n     * @dev Destroys `amount` tokens from `account`.`amount` is then deducted\r\n     * from the caller's allowance.\r\n     *\r\n     * See {_burn} and {_approve}.\r\n     */\r\n    function _burnFrom(address account, uint256 amount) internal {\r\n        _burn(account, amount);\r\n        _approve(\r\n            account,\r\n            _msgSender(),\r\n            _allowances[account][_msgSender()].sub(amount, 'BEP20: burn amount exceeds allowance')\r\n        );\r\n    }\r\n}\r\n\r\n\r\n// import \"@nomiclabs/buidler/console.sol\";\r\ninterface IMigratorChef {\r\n    // Perform LP token migration from legacy PancakeSwap to CakeSwap.\r\n    // Take the current LP token address and return the new LP token address.\r\n    // Migrator should have full access to the caller's LP token.\r\n    // Return the new LP token address.\r\n    //\r\n    // XXX Migrator must have allowance access to PancakeSwap LP tokens.\r\n    // CakeSwap must mint EXACTLY the same amount of CakeSwap LP tokens or\r\n    // else something bad will happen. Traditional PancakeSwap does not\r\n    // do that so be careful!\r\n    function migrate(IBEP20 token) external returns (IBEP20);\r\n}\r\n\r\n// MasterChef is the master of Busd. He can make Busd and he is a fair guy.\r\n//\r\n// Note that it's ownable and the owner wields tremendous power. The ownership\r\n// will be transferred to a governance smart contract once Busd is sufficiently\r\n// distributed and the community can show to govern itself.\r\n//\r\n// Have fun reading it. Hopefully it's bug-free. God bless.\r\ncontract MasterChef is Ownable {\r\n    using SafeMath for uint256;\r\n    using SafeBEP20 for IBEP20;\r\n\r\n    // Info of each user.\r\n    struct UserInfo {\r\n        uint256 amount;     // How many LP tokens the user has provided.\r\n        uint256 rewardDebt; // Reward debt. See explanation below.\r\n        //\r\n        // We do some fancy math here. Basically, any point in time, the amount of Busds\r\n        // entitled to a user but is pending to be distributed is:\r\n        //\r\n        //   pending reward = (user.amount * pool.accBusdPerShare) - user.rewardDebt\r\n        //\r\n        // Whenever a user deposits or withdraws LP tokens to a pool. Here's what happens:\r\n        //   1. The pool's `accBusdPerShare` (and `lastRewardBlock`) gets updated.\r\n        //   2. User receives the pending reward sent to his/her address.\r\n        //   3. User's `amount` gets updated.\r\n        //   4. User's `rewardDebt` gets updated.\r\n    }\r\n\r\n    // Info of each pool.\r\n    struct PoolInfo {\r\n        IBEP20 lpToken;           // Address of LP token contract.\r\n        uint256 allocPoint;       // How many allocation points assigned to this pool. Busds to distribute per block.\r\n        uint256 lastRewardBlock;  // Last block number that Busds distribution occurs.\r\n        uint256 accBusdPerShare; // Accumulated Busds per share, times 1e12. See below.\r\n    }\r\n\r\n    // The BITX TOKEN!\r\n    BEP20 public bitx;\r\n    // The BUSD TOKEN!\r\n    BEP20 public busd;\r\n    // BUSD tokens created per block.\r\n    uint256 public busdPerBlock;\r\n    // Bonus muliplier for early BUSD makers.\r\n    uint256 public BONUS_MULTIPLIER = 1;\r\n    // The migrator contract. It has a lot of power. Can only be set through governance (owner).\r\n    IMigratorChef public migrator;\r\n\r\n    // Info of each pool.\r\n    PoolInfo[] public poolInfo;\r\n    // Info of each user that stakes LP tokens.\r\n    mapping (uint256 => mapping (address => UserInfo)) public userInfo;\r\n    // Total allocation poitns. Must be the sum of all allocation points in all pools.\r\n    uint256 public totalAllocPoint = 0;\r\n    // The block number when BUSD mining starts.\r\n    uint256 public startBlock;\r\n\r\n    event Deposit(address indexed user, uint256 indexed pid, uint256 amount);\r\n    event Withdraw(address indexed user, uint256 indexed pid, uint256 amount);\r\n    event EmergencyWithdraw(address indexed user, uint256 indexed pid, uint256 amount);\r\n\r\n    constructor(\r\n        BEP20 _bitx,\r\n        BEP20 _busd,\r\n        uint256 _busdPerBlock,\r\n        uint256 _startBlock\r\n    ) {\r\n        bitx = _bitx;\r\n        busd = _busd;\r\n        busdPerBlock = _busdPerBlock;\r\n        startBlock = _startBlock;\r\n\r\n        // staking pool\r\n        poolInfo.push(PoolInfo({\r\n            lpToken: _bitx,\r\n            allocPoint: 1000,\r\n            lastRewardBlock: startBlock,\r\n            accBusdPerShare: 0\r\n        }));\r\n\r\n        totalAllocPoint = 1000;\r\n    }\r\n\r\n    function setBitx(BEP20 _bitx) external {\r\n        bitx = _bitx;\r\n    }\r\n\r\n    function setBusd(BEP20 _busd) external {\r\n        busd = _busd;\r\n    }\r\n\r\n    function setBusdPerBlock(uint256 _busdPerBlock) external {\r\n        busdPerBlock = _busdPerBlock;\r\n    }\r\n\r\n    function updateMultiplier(uint256 multiplierNumber) public onlyOwner {\r\n        BONUS_MULTIPLIER = multiplierNumber;\r\n    }\r\n\r\n    function poolLength() external view returns (uint256) {\r\n        return poolInfo.length;\r\n    }\r\n\r\n    // Add a new lp to the pool. Can only be called by the owner.\r\n    // XXX DO NOT add the same LP token more than once. Rewards will be messed up if you do.\r\n    function add(uint256 _allocPoint, IBEP20 _lpToken, bool _withUpdate) public onlyOwner {\r\n        if (_withUpdate) {\r\n            massUpdatePools();\r\n        }\r\n        uint256 lastRewardBlock = block.number > startBlock ? block.number : startBlock;\r\n        totalAllocPoint = totalAllocPoint.add(_allocPoint);\r\n        poolInfo.push(PoolInfo({\r\n            lpToken: _lpToken,\r\n            allocPoint: _allocPoint,\r\n            lastRewardBlock: lastRewardBlock,\r\n            accBusdPerShare: 0\r\n        }));\r\n        updateStakingPool();\r\n    }\r\n\r\n    // Update the given pool's Busd allocation point. Can only be called by the owner.\r\n    function set(uint256 _pid, uint256 _allocPoint, bool _withUpdate) public onlyOwner {\r\n        if (_withUpdate) {\r\n            massUpdatePools();\r\n        }\r\n        totalAllocPoint = totalAllocPoint.sub(poolInfo[_pid].allocPoint).add(_allocPoint);\r\n        uint256 prevAllocPoint = poolInfo[_pid].allocPoint;\r\n        poolInfo[_pid].allocPoint = _allocPoint;\r\n        if (prevAllocPoint != _allocPoint) {\r\n            updateStakingPool();\r\n        }\r\n    }\r\n\r\n    function updateStakingPool() internal {\r\n        uint256 length = poolInfo.length;\r\n        uint256 points = 0;\r\n        for (uint256 pid = 1; pid < length; ++pid) {\r\n            points = points.add(poolInfo[pid].allocPoint);\r\n        }\r\n        if (points != 0) {\r\n            points = points.div(3);\r\n            totalAllocPoint = totalAllocPoint.sub(poolInfo[0].allocPoint).add(points);\r\n            poolInfo[0].allocPoint = points;\r\n        }\r\n    }\r\n\r\n    // Set the migrator contract. Can only be called by the owner.\r\n    function setMigrator(IMigratorChef _migrator) public onlyOwner {\r\n        migrator = _migrator;\r\n    }\r\n\r\n    // Migrate lp token to another lp contract. Can be called by anyone. We trust that migrator contract is good.\r\n    function migrate(uint256 _pid) public {\r\n        require(address(migrator) != address(0), \"migrate: no migrator\");\r\n        PoolInfo storage pool = poolInfo[_pid];\r\n        IBEP20 lpToken = pool.lpToken;\r\n        uint256 bal = lpToken.balanceOf(address(this));\r\n        lpToken.safeApprove(address(migrator), bal);\r\n        IBEP20 newLpToken = migrator.migrate(lpToken);\r\n        require(bal == newLpToken.balanceOf(address(this)), \"migrate: bad\");\r\n        pool.lpToken = newLpToken;\r\n    }\r\n\r\n    // Return reward multiplier over the given _from to _to block.\r\n    function getMultiplier(uint256 _from, uint256 _to) public view returns (uint256) {\r\n        return _to.sub(_from).mul(BONUS_MULTIPLIER);\r\n    }\r\n\r\n    // View function to see pending Busds on frontend.\r\n    function pendingBusd(uint256 _pid, address _user) external view returns (uint256) {\r\n        PoolInfo storage pool = poolInfo[_pid];\r\n        UserInfo storage user = userInfo[_pid][_user];\r\n        uint256 accBusdPerShare = pool.accBusdPerShare;\r\n        uint256 lpSupply = pool.lpToken.balanceOf(address(this));\r\n        if (block.number > pool.lastRewardBlock && lpSupply != 0) {\r\n            uint256 multiplier = getMultiplier(pool.lastRewardBlock, block.number);\r\n            uint256 busdReward = multiplier.mul(busdPerBlock).mul(pool.allocPoint).div(totalAllocPoint);\r\n            accBusdPerShare = accBusdPerShare.add(busdReward.mul(1e12).div(lpSupply));\r\n        }\r\n        return user.amount.mul(accBusdPerShare).div(1e12).sub(user.rewardDebt);\r\n    }\r\n\r\n    // View function to see pending Busds on frontend.\r\n    function pendingAllBusd(address _user) external view returns (uint256) {\r\n\r\n        uint256 amount = 0;\r\n        for(uint i=1 ; i<poolInfo.length ; i++) {\r\n            PoolInfo storage pool = poolInfo[i];\r\n            UserInfo storage user = userInfo[i][_user];\r\n            uint256 accBusdPerShare = pool.accBusdPerShare;\r\n            uint256 lpSupply = pool.lpToken.balanceOf(address(this));\r\n            if (block.number > pool.lastRewardBlock && lpSupply != 0) {\r\n                uint256 multiplier = getMultiplier(pool.lastRewardBlock, block.number);\r\n                uint256 busdReward = multiplier.mul(busdPerBlock).mul(pool.allocPoint).div(totalAllocPoint);\r\n                accBusdPerShare = accBusdPerShare.add(busdReward.mul(1e12).div(lpSupply));\r\n            }\r\n            amount = amount.add(user.amount.mul(accBusdPerShare).div(1e12).sub(user.rewardDebt));\r\n        }\r\n        return amount;\r\n    }\r\n\r\n    // Update reward variables for all pools. Be careful of gas spending!\r\n    function massUpdatePools() public {\r\n        uint256 length = poolInfo.length;\r\n        for (uint256 pid = 0; pid < length; ++pid) {\r\n            updatePool(pid);\r\n        }\r\n    }\r\n\r\n    // Update reward variables of the given pool to be up-to-date.\r\n    function updatePool(uint256 _pid) public {\r\n        PoolInfo storage pool = poolInfo[_pid];\r\n        if (block.number <= pool.lastRewardBlock) {\r\n            return;\r\n        }\r\n        uint256 lpSupply = pool.lpToken.balanceOf(address(this));\r\n        if (lpSupply == 0) {\r\n            pool.lastRewardBlock = block.number;\r\n            return;\r\n        }\r\n        uint256 multiplier = getMultiplier(pool.lastRewardBlock, block.number);\r\n        uint256 busdReward = multiplier.mul(busdPerBlock).mul(pool.allocPoint).div(totalAllocPoint);\r\n        pool.accBusdPerShare = pool.accBusdPerShare.add(busdReward.mul(1e12).div(lpSupply));\r\n        pool.lastRewardBlock = block.number;\r\n    }\r\n\r\n    // Deposit LP tokens to MasterChef for Busd allocation.\r\n    function deposit(uint256 _pid, uint256 _amount) public {\r\n\r\n        require (_pid != 0, 'deposit Busd by staking');\r\n\r\n        PoolInfo storage pool = poolInfo[_pid];\r\n        UserInfo storage user = userInfo[_pid][msg.sender];\r\n        updatePool(_pid);\r\n        if (user.amount > 0) {\r\n            uint256 pending = user.amount.mul(pool.accBusdPerShare).div(1e12).sub(user.rewardDebt);\r\n            if(pending > 0) {\r\n                safeBusdTransfer(msg.sender, pending);\r\n            }\r\n        }\r\n        if (_amount > 0) {\r\n            pool.lpToken.safeTransferFrom(address(msg.sender), address(this), _amount);\r\n            user.amount = user.amount.add(_amount);\r\n        }\r\n        user.rewardDebt = user.amount.mul(pool.accBusdPerShare).div(1e12);\r\n        emit Deposit(msg.sender, _pid, _amount);\r\n    }\r\n\r\n    // Withdraw LP tokens from MasterChef.\r\n    function withdraw(uint256 _pid, uint256 _amount) public {\r\n\r\n        require (_pid != 0, 'withdraw Busd by unstaking');\r\n\r\n        PoolInfo storage pool = poolInfo[_pid];\r\n        UserInfo storage user = userInfo[_pid][msg.sender];\r\n        require(user.amount >= _amount, \"withdraw: not good\");\r\n        updatePool(_pid);\r\n        uint256 pending = user.amount.mul(pool.accBusdPerShare).div(1e12).sub(user.rewardDebt);\r\n        if(pending > 0) {\r\n            safeBusdTransfer(msg.sender, pending);\r\n        }\r\n        if(_amount > 0) {\r\n            user.amount = user.amount.sub(_amount);\r\n            pool.lpToken.safeTransfer(address(msg.sender), _amount);\r\n        }\r\n        user.rewardDebt = user.amount.mul(pool.accBusdPerShare).div(1e12);\r\n        emit Withdraw(msg.sender, _pid, _amount);\r\n    }\r\n\r\n    // Stake Busd tokens to MasterChef\r\n    function enterStaking(uint256 _amount) public {\r\n        PoolInfo storage pool = poolInfo[0];\r\n        UserInfo storage user = userInfo[0][msg.sender];\r\n        updatePool(0);\r\n        if (user.amount > 0) {\r\n            uint256 pending = user.amount.mul(pool.accBusdPerShare).div(1e12).sub(user.rewardDebt);\r\n            if(pending > 0) {\r\n                safeBusdTransfer(msg.sender, pending);\r\n            }\r\n        }\r\n        if(_amount > 0) {\r\n            pool.lpToken.safeTransferFrom(address(msg.sender), address(this), _amount);\r\n            user.amount = user.amount.add(_amount);\r\n        }\r\n        user.rewardDebt = user.amount.mul(pool.accBusdPerShare).div(1e12);\r\n\r\n        emit Deposit(msg.sender, 0, _amount);\r\n    }\r\n\r\n    // Withdraw Busd tokens from STAKING.\r\n    function leaveStaking(uint256 _amount) public {\r\n        PoolInfo storage pool = poolInfo[0];\r\n        UserInfo storage user = userInfo[0][msg.sender];\r\n        require(user.amount >= _amount, \"withdraw: not good\");\r\n        updatePool(0);\r\n        uint256 pending = user.amount.mul(pool.accBusdPerShare).div(1e12).sub(user.rewardDebt);\r\n        if(pending > 0) {\r\n            safeBusdTransfer(msg.sender, pending);\r\n        }\r\n        if(_amount > 0) {\r\n            user.amount = user.amount.sub(_amount);\r\n            pool.lpToken.safeTransfer(address(msg.sender), _amount);\r\n        }\r\n        user.rewardDebt = user.amount.mul(pool.accBusdPerShare).div(1e12);\r\n\r\n        emit Withdraw(msg.sender, 0, _amount);\r\n    }\r\n\r\n    // Withdraw without caring about rewards. EMERGENCY ONLY.\r\n    function emergencyWithdraw(uint256 _pid) public {\r\n        PoolInfo storage pool = poolInfo[_pid];\r\n        UserInfo storage user = userInfo[_pid][msg.sender];\r\n        pool.lpToken.safeTransfer(address(msg.sender), user.amount);\r\n        emit EmergencyWithdraw(msg.sender, _pid, user.amount);\r\n        user.amount = 0;\r\n        user.rewardDebt = 0;\r\n    }\r\n\r\n    // All withdraw without caring about rewards. EMERGENCY ONLY.\r\n    function emergencyAllWithdraw() public {\r\n\r\n        for(uint i=1 ; i<poolInfo.length ; i++) {\r\n            PoolInfo storage pool = poolInfo[i];\r\n            UserInfo storage user = userInfo[i][msg.sender];\r\n            pool.lpToken.safeTransfer(address(msg.sender), user.amount);\r\n            emit EmergencyWithdraw(msg.sender, i, user.amount);\r\n            user.amount = 0;\r\n            user.rewardDebt = 0;\r\n        }\r\n    }\r\n\r\n    // All harvest. EMERGENCY ONLY.\r\n    function emergencyAllHarvest() public {\r\n\r\n        for(uint i=1 ; i<poolInfo.length ; i++) {\r\n            withdraw(i, 0);\r\n        }\r\n    }\r\n\r\n    // Safe Busd transfer function, just in case if rounding error causes pool to not have enough Busds.\r\n    function safeBusdTransfer(address _to, uint256 _amount) internal {\r\n        busd.transfer(_to, _amount);\r\n    }\r\n\r\n    \r\n}",
  "sourcePath": "D:\\Work\\Blockchain\\staking\\frontend\\src\\backend\\contracts\\MasterChef.sol",
  "compiler": {
    "name": "solc",
    "version": "0.8.0+commit.c7dfd78e.Emscripten.clang"
  },
  "schemaVersion": "3.4.3",
  "updatedAt": "2022-04-15T11:25:32.560Z",
  "devdoc": {
    "details": "Implementation of the {IBEP20} interface. This implementation is agnostic to the way tokens are created. This means that a supply mechanism has to be added in a derived contract using {_mint}. For a generic mechanism see {BEP20PresetMinterPauser}. TIP: For a detailed writeup see our guide https://forum.zeppelin.solutions/t/how-to-implement-BEP20-supply-mechanisms/226[How to implement supply mechanisms]. We have followed general OpenZeppelin guidelines: functions revert instead of returning `false` on failure. This behavior is nonetheless conventional and does not conflict with the expectations of BEP20 applications. Additionally, an {Approval} event is emitted on calls to {transferFrom}. This allows applications to reconstruct the allowance for all accounts just by listening to said events. Other implementations of the EIP may not emit these events, as it isn't required by the specification. Finally, the non-standard {decreaseAllowance} and {increaseAllowance} functions have been added to mitigate the well-known issues around setting allowances. See {IBEP20-approve}.",
    "kind": "dev",
    "methods": {
      "allowance(address,address)": {
        "details": "See {BEP20-allowance}."
      },
      "approve(address,uint256)": {
        "details": "See {BEP20-approve}. Requirements: - `spender` cannot be the zero address."
      },
      "balanceOf(address)": {
        "details": "See {BEP20-balanceOf}."
      },
      "constructor": {
        "details": "Sets the values for {name} and {symbol}, initializes {decimals} with a default value of 18. To select a different value for {decimals}, use {_setupDecimals}. All three of these values are immutable: they can only be set once during construction."
      },
      "decimals()": {
        "details": "Returns the token decimals."
      },
      "decreaseAllowance(address,uint256)": {
        "details": "Atomically decreases the allowance granted to `spender` by the caller. This is an alternative to {approve} that can be used as a mitigation for problems described in {BEP20-approve}. Emits an {Approval} event indicating the updated allowance. Requirements: - `spender` cannot be the zero address. - `spender` must have allowance for the caller of at least `subtractedValue`."
      },
      "getOwner()": {
        "details": "Returns the bep token owner."
      },
      "increaseAllowance(address,uint256)": {
        "details": "Atomically increases the allowance granted to `spender` by the caller. This is an alternative to {approve} that can be used as a mitigation for problems described in {BEP20-approve}. Emits an {Approval} event indicating the updated allowance. Requirements: - `spender` cannot be the zero address."
      },
      "mint(uint256)": {
        "details": "Creates `amount` tokens and assigns them to `msg.sender`, increasing the total supply. Requirements - `msg.sender` must be the token owner"
      },
      "name()": {
        "details": "Returns the token name."
      },
      "owner()": {
        "details": "Returns the address of the current owner."
      },
      "renounceOwnership()": {
        "details": "Leaves the contract without owner. It will not be possible to call `onlyOwner` functions anymore. Can only be called by the current owner. NOTE: Renouncing ownership will leave the contract without an owner, thereby removing any functionality that is only available to the owner."
      },
      "symbol()": {
        "details": "Returns the token symbol."
      },
      "totalSupply()": {
        "details": "See {BEP20-totalSupply}."
      },
      "transfer(address,uint256)": {
        "details": "See {BEP20-transfer}. Requirements: - `recipient` cannot be the zero address. - the caller must have a balance of at least `amount`."
      },
      "transferFrom(address,address,uint256)": {
        "details": "See {BEP20-transferFrom}. Emits an {Approval} event indicating the updated allowance. This is not required by the EIP. See the note at the beginning of {BEP20}; Requirements: - `sender` and `recipient` cannot be the zero address. - `sender` must have a balance of at least `amount`. - the caller must have allowance for `sender`'s tokens of at least `amount`."
      },
      "transferOwnership(address)": {
        "details": "Transfers ownership of the contract to a new account (`newOwner`). Can only be called by the current owner."
      }
    },
    "version": 1
  },
  "userdoc": {
    "kind": "user",
    "methods": {},
    "version": 1
  }
}